:020000040800F2
:1000000078070020350200083D0200083F02000882
:1000100041020008430200084502000800000000F9
:10002000000000000000000000000000470200087F
:1000300049020008000000004B0200084D020008C1
:100040004F0200084F0200084F0200084F0200084C
:100050004F0200084F0200084F0200084F0200083C
:100060004F0200084F0200084F0200084F0200082C
:100070004F0200084F0200084F0200084F0200081C
:100080004F0200084F0200084F0200084F0200080C
:100090004F0200084F0200084F0200084F020008FC
:1000A0004F0200084F0200084F0200084F020008EC
:1000B0004F0200084F0200087D1900084F02000897
:1000C0004F0200084F0200084F0200084F020008CC
:1000D0004F0200089D1900084F0200084F02000857
:1000E0004F0200084F0200084F02000800F002F81B
:1000F00000F090F80AA090E8000C82448344AAF132
:100100000107DA4501D100F085F8AFF2090EBAE82F
:100110000F0013F0010F18BFFB1A43F0010318473B
:10012000501E0000701E0000103A24BF78C878C12D
:10013000FAD8520724BF30C830C144BF04680C60ED
:10014000704700000023002400250026103A28BF35
:1001500078C1FBD8520728BF30C148BF0B60704739
:100160006E2900F05981702900F09B82662901F008
:100170009186652901F08E86672901F08B866129B9
:10018000AFF3008003681B0A28BF41F08001692992
:1001900000F00681642900F00381752900F00081D8
:1001A0006F2900F02882782900F06782E92900F0A1
:1001B000C381E42900F0C081F52900F0BD81EF2959
:1001C00000F02582F82900F066820368DB0928BF69
:1001D00041F08001632900F0EA85732900F0EF8582
:1001E000E32900F0FA85F32900F0FF85002070472D
:1001F0001FB500F04BFE04000020002101F034FE8A
:10020000401C60600020002101F018FEE0601FBD6E
:1002100010B510BD00F00DFE1146FFF7E9FF01F02B
:10022000EDFC00F0E9FE03B4FFF7F2FF03BC00F0C1
:1002300031FF00000948804709480047FEE7FEE714
:10024000FEE7FEE7FEE7FEE7FEE7FEE7FEE7FEE786
:1002500004480549054A064B704700001D1900086F
:10026000ED000008780100207807002078030020C6
:10027000780300201CB50C46064B7B446946009071
:10028000204600F0E2F804460020694600F0F0F84D
:1002900020461CBDF301000010B5431C02E010F81D
:1002A000011B71B18107FAD14FF0013202C88C1ADB
:1002B0008C4314EAC211F9D0C01A0A0603D0C01E3A
:1002C00010BDC01A10BD0A0401D0801E10BD090265
:1002D000FCD0401E10BD70477047704770B5044693
:1002E00085690068C10601D5302600E02026C007D8
:1002F00007D070BDD4E9012130469047206A401CE8
:1003000020626D1EF6D570BD70B504468569007813
:10031000C00707D170BDD4E9012120209047206A91
:10032000401C20626D1EF6D570BD09684A0501D5D6
:1003300040B27047C905FCD500B2704709684A054C
:1003400001D5C0B27047C905FCD580B2704770B501
:100350000C460546012A05D02878800600D5EA69B2
:10036000002302E0012305E05B1C934202D2E05C23
:100370000028F9D1A869E618C01AA861286A1844AB
:1003800028622846FFF7AAFF04E0D5E9012114F806
:10039000010B9047B442F8D32846FFF7B5FF70BD74
:1003A0002DE9F0410646002410687529314616A54E
:1003B00010D0FFF7BAFF002802DA404213A507E089
:1003C00031688A0701D512A502E0490704D511A5B5
:1003D000012401E0FFF7B2FF00210A2206F1240701
:1003E00009E0B0FBF2FCB0FBF2F302FB1C00303082
:1003F00078541846491C0028F3D123462A46304633
:10040000BDE8F04100F061BA000000002D000000DE
:100410002B0000002000000011680268006A5305EC
:1004200001D508700AE0D30501D5088006E013065F
:1004300003D5C217C1E9000200E00860012070473F
:1004400001694A1C02610878704700B58FB0CDE998
:1004500001310021059105497944CDE90310114688
:10046000684600F029F90FB000BD0000E5FFFFFF6E
:100470000A6802F8010B0A60704700002DE9FF5F6F
:1004800015468A460446DFF8AC80F8440027D8E9D0
:1004900000103E46CDE9001010E03AF816106A460A
:1004A00002A800F0A6FC411C07D02178890603D5DC
:1004B000E269391891420DD80744761C20788006ED
:1004C00002D5E069B84205DDAE42E6DB3AF8160037
:1004D0000028E2D1A069C01BA0612046FFF7FEFE04
:1004E000D8E90010CDE90010002017E03AF8181004
:1004F0006A4602A800F07DFCB0F1FF3F81460BD0B8
:1005000000250DF1080B05E0D4E901211BF80500D9
:1005100090476D1C4D45F7D308F10100B04280466D
:10052000E4DB206A384420622046FFF7EDFEBDE898
:10053000FF9F00000A1A00002DE9F0418046D21DFD
:1005400022F007020025D2E90002F52915A614D0F1
:10055000011E72F1000106DA0023D0EB030063EB09
:10056000020211A608E0D8F800108B0701D50FA6EB
:1005700002E0490701D50EA601251146002408F125
:10058000240704E000F05CF930323A55641C50EA6C
:100590000102F7D12B46324621464046BDE8F041E4
:1005A00000F093B9000000002D0000002B000000B7
:1005B0002000000030B4002100F1240408E002F023
:1005C0000705D208303542EA4372DB086554491CFE
:1005D00052EA0305F3D10468002310A2250707D5CA
:1005E000A40600D421B1C46901230DA2641EC46114
:1005F00030BC00F06AB910B5044621461068FFF718
:100600009DFE02462046BDE810400023D2E7D21DE1
:1006100022F00701D1E90023CCE700000000000030
:1006200030000000F0B40D460188090502D5214CC8
:100630007C4402E01F4C7C440E34002100F124066F
:1006400008E002F00F071209E75D42EA03721B0996
:100650007754491C52EA0307F3D1027800231207AA
:1006600004D5702D06D009B1022311342246F0BC06
:1006700000F02BB901231034F8E770B504460D469D
:1006800021461068FFF75AFE024629462046BDE87B
:1006900070400023C6E7D21D22F00703D3E90023F0
:1006A000C0E70368126843F0200303600823C361B6
:1006B0000023B7E76C1800002DE9F05F8946044677
:1006C0004FF0000ADFF874B1FB44C0F820A02046C8
:1006D000E1688847002874D0252806D0D4E9012194
:1006E0009047206A401C2062F1E700265F462046C2
:1006F000E16888472028054607DB312D05D27819A7
:1007000010F8200C08B10643F1E7B00701D526F038
:100710000406C4F81CA00027C4F818A02A2D09D08C
:10072000284601F063FA38B304EB8708303DC8F877
:10073000185019E059F8041B204604EB8702916118
:10074000E1688847012F054618D1E069002820DAC2
:1007500026F020061DE0D8F8180000EB800005EB1D
:1007600040003038C8F818002046E1688847054640
:1007700001F03CFA0028EED1012F0AD02E2D08D12D
:100780002046E16888477F1C0546022F46F0200678
:10079000C4DBA069002803DA404246F00106A061EC
:1007A000F00701D026F010066C2D0BD0682D09D073
:1007B0004C2D39D06A2D35D0742D35D07A2D33D0CB
:1007C00016E038E0E1682F4620468847B8420546E3
:1007D00009D16C2F26D04FF48060E1680643204693
:1007E0008847054604E06C2F1AD04FF4807006430A
:1007F0000DB3A5F14100192802D8203546F4006652
:100800004A462946204626604E46FFF7A9FC80B19D
:1008100001280BD0F61D26F0070000F1080956E765
:100820004020E4E78020D8E70020D6E706F104095D
:100830004DE7284652E7206ABDE8F09FFC1700000C
:1008400030B5B0F10A024FEA900E71F100034EEAA2
:10085000817EB0EB0E0061EB91014FEA101E4EEA73
:10086000017E10EB0E0041EB11114FEA102E4EEA03
:10087000016E10EB0E0041EB11214FEA104E4EEAD3
:10088000014E10EB0E0041EB1141401841F1000107
:100890004FEAD00040EA41704FEAD10110EB8005E9
:1008A0004FEA810444EA907444EB01046D1944EB6F
:1008B0000404521BA3414FF0000348BF0A3200D585
:1008C00030BD401C41F1000130BD2DE9F0470D461F
:1008D00099469246044600F124080168880604D52A
:1008E000E06921F01001216000E00120A84201DD53
:1008F000471B00E00027A1697A1902EB0900081ADA
:10090000A0612078C00602D42046FFF7E7FC00264D
:1009100008E0D4E901211AF806009047206A401C3B
:10092000761C20624E45F4DB2078C0060AD52046AE
:10093000FFF7D4FC06E0D4E9012130209047206A7B
:10094000401C2062381EA7F10107F4DC07E0D4E95F
:10095000012118F805009047206A401C2062281EDB
:10096000A5F10105F3DC2046FFF7CEFC2078000658
:1009700002D50220BDE8F0870120FBE770472DE992
:10098000FF4F0C461E464FF0FF378BB0D2E90001F7
:10099000DDF860800A908A46C1F30A5505B93D46E4
:1009A000002108464FF00000BAF1000F00F44000AB
:1009B00005DA00EB80004FF4400101EA50004FEAF5
:1009C0009059B9F1010F00DDB9460A9850EA4A0082
:1009D0000ED044F61050A5F2FF3545432F14B8F160
:1009E000000F1ED07542291E1EDDC9F100021CE059
:1009F000B8F1010F4FF0000001D0302103E0F243C5
:100A000005E02154401CB042FBDB304600220021AF
:100A100021540B99C1F80880C1E900200FB0BDE84E
:100A2000F08FBD1B6D1CDEE74A4600DA694206A85E
:100A300000F070FA06AB93E8070003AB83E8070009
:100A400050460A9900F02DFB8DE80700A0F50050F4
:100A50001F3800900398002D0ADD42F21F014A461C
:100A60000844002303A90390684600F096FD09E0BE
:100A7000A0F500504A461F38002303A9039068469A
:100A800000F0A0FD8DE807000004000C03D04FF03B
:100A9000FF30410800E01046B8F1000F03D00022FB
:100AA000009215461EE0751E05D4FFF7C9FE3032D0
:100AB00062556D1EF9D5B3460122084302D00022CB
:100AC0007F1C04E02078302801D100227F1E002AFC
:100AD000099784D01DE0112D07DAFFF7B1FE3032FF
:100AE00062556D1C50EA0102F5D1084302D000980E
:100AF000C8B10EE00021681E05E0235C625C63540F
:100B00002254401E491C8142F7DBAB46A81B401E05
:100B10000990002004F80B000B98099AC0F808808F
:100B2000C0E9002B7AE711264FF0000857E72DE9BE
:100B3000F04F88460446D21D22F0070191B0D1E95A
:100B40000001CDE90A0101F03DF802460B98C00F03
:100B500001D02D2007E02068810701D52B2002E07D
:100B6000202101EAC000032A099001D0072A05DBF1
:100B700003464146204600F08DF90BE120788006BF
:100B800001D5E06900E00620B8F1650F814606D086
:100B9000B8F1660F18D0B8F1670F70D131E00020BE
:100BA000B9F1110F009001DB112301E009F10103FC
:100BB0000AAA01A90CA8FFF7E2FEDDE90C700026E5
:100BC00009F10105834647E001204B4600904FF0B4
:100BD00000470AAA01A90CA8FFF7D1FEDDE90DB074
:100BE0000C995D46002610B909F101000D18B9EB0A
:100BF000050003D4C0F1FF3609F10105A5EB09009A
:100C00002BE0B9F1010F01DA4FF001090020B9F131
:100C1000110F0090484601DD112300E003460AAAA7
:100C200001A90CA8FFF7ABFEDDE90C704D460026CC
:100C30008346207800070AD4AB4500DA5D4601A858
:100C4000012D04DD411911F8011C302907D04F4551
:100C500002DA17F1040F04DA012082460FE06D1E5C
:100C6000EEE7002F02DCED1B3E4403E0781CA842B7
:100C700000DD7D1CB81B00F1010A4FF00047207811
:100C8000000703D4AA4501DB4FF0FF3A0021B7F17A
:100C9000004F0DF143088DF8431024D002202B2380
:100CA000002F01DA7F422D230A21021EA0F101004C
:100CB00000DC5FB197FBF1FC97FBF1F201FB1C7CC0
:100CC00017460CF1300C08F801CDEEE7A8F1010051
:100CD00003702188090501D5452100E06521A0F1B7
:100CE000010800F8011C09980FA9A1EB0807FF1DD6
:100CF00000B10120411901EBEA70A1693844081ADA
:100D0000401EA0612078C00602D42046FFF7E6FA14
:100D1000099828B1D4E901219047206A401C20623B
:100D20002078C00622D52046FFF7D8FA1EE0002E14
:100D300004DBB34502DD01A8805D00E03020D4E98A
:100D400001219047206A401C2062761CAAF1010014
:100D50005FEA000A0AD100F099F8C0680168405CB7
:100D6000D4E901219047206A401C2062281EA5F189
:100D70000105DCDC07E0D4E9012118F8010B9047FC
:100D8000206A401C2062381EA7F10107F3DC2046D0
:100D9000FFF7BAFA032011B041E610B5436913B169
:100DA000AFF3008001E0FFF7D2FA012010BD127806
:100DB00000F124010A7000224A700122EDE7116857
:100DC0004FF0FF32E9E710B5436913B1AFF300808C
:100DD00001E0FFF753FB012010BD128800F1240150
:100DE00082840022C2840122EDE711684FF0FF32B5
:100DF000E9E770B516460C46054600F03FF8036873
:100E000093F80101012806D0FF2C0FD8185D68B1B6
:100E100001202C7070BDD3F807013246214603F241
:100E2000071303442846BDE8704018474FF0FF30D1
:100E300070BD754600F0EAF8AE46050069465346B7
:100E400020F00700854618B020B5FFF701FABDE88D
:100E500020404FF000064FF000074FF000084FF021
:100E6000000B21F00701AC46ACE8C009ACE8C009B2
:100E7000ACE8C009ACE8C0098D46704710B500F079
:100E800005F8001D10BD00BFE10F000000487047CD
:100E9000380100202DE9F0411F4604460326016871
:100EA000072A01F4006004DB08B116A505E016A5C9
:100EB00003E008B115A500E015A521F010002060A1
:100EC000A069C01EA0610FB1401EA0612046FFF7BF
:100ED00005FA4FB1D4E9012138469047206A401CF9
:100EE0002062C01C206206E0206AFAE7D4E90121F2
:100EF00015F8010B9047761EF8D22046FFF704FA4A
:100F0000BDE8F0814E414E006E616E00494E4600D4
:100F1000696E66002DE9F047814616468AB035486D
:100F200078440DC88DE80D0032487844801C03AC2D
:100F30000DC884E80D0041F69B300844372190FB32
:100F4000F1F290FBF1F5A5F1800501FB12041B3CC9
:100F500002D56442012000E00020DFF898A080461E
:100F60000027FA44AAF1BE0A0EE0E0070AD0324692
:100F7000684607EB470101230AEB810100F022FBE1
:100F80008DE8070064107F1C002CEED1194F7F44C0
:100F9000AE3F19E0E80715D007EB04100DF1180A71
:100FA00090E80E008AE80E00C068F04201D198195E
:100FB00008903246012306A903A800F003FB03AB07
:100FC00083E807006D10641C002DE3D14FF001038E
:100FD00032466946B8F1000F03A802D000F0DDFAEE
:100FE00001E000F0EFFAC9E90001C9F808200AB0F1
:100FF000BDE8F0873410000010B50446AFF3008060
:101000002046BDE81040FFF70EB9000000487047C9
:10101000180100204FF0013C50F8042B51F8043B1C
:101020009A4221D1A2EB0C03934313EACC1317D1BC
:1010300050F8042B51F8043B9A4215D1A2EB0C0353
:10104000934313EACC130BD150F8042B51F8043B13
:101050009A4209D1A2EB0C03934313EACC13DBD0E1
:101060004FF00000704700BFD01A01BAB1FA81F109
:1010700001F0180122FA01F0CB40C1F12001DBB2EE
:10108000C0B2C01A2CFA01F3D11A914311EAC3116C
:10109000E6D1704701491820ABBEFEE726000200EA
:1010A00070475FEA400C08BF91F0000F4FEA8C23B5
:1010B0004FEAC12243EA51514FEA1C5018BF00F5D4
:1010C000F0404FEA300018BF41F000415FEA6C5C2D
:1010D00000F02980BCF1FF3F08BF40F0804070471E
:1010E000130C06BF12044FF0100C4FF0000C130E3F
:1010F00004BF12020CF1080C130F04BF12010CF113
:10110000040C930F04BF92000CF1020CD30F04BF28
:1011100052000CF1010C11464FF00002A0F11F002B
:10112000A0EB0C00704711F0004F08BF704731F082
:1011300000413FF4D5AF0B0C06BF09044FF0100C73
:101140004FF0000C0B0E04BF09020CF1080C0B0F42
:1011500004BF09010CF1040C8B0F04BF89000CF1D2
:10116000020CCB0F04BF49000CF1010CCCF12003A1
:10117000A0EB0C0022FA03F302FA0CF241EA03019D
:1011800000F10100704720F07F4C80EA030023F05B
:101190007F47ACEB070303F57C5300F0004003F1FD
:1011A000FF032DE980494FEA154B09B44FEA144378
:1011B00025EA0B4E24EA03480FF2042606EB132718
:1011C00049083E785FEA320203FB0667C7F500076D
:1011D00007FB06F64FEA54374FEAD64606F10206F9
:1011E00007FB066CCCF1005C4FEA1C472CEA074C6D
:1011F00007FB06F40CFB06F504EB15464FEA9616C2
:1012000034BF00204FF000404FEAD13706FB07FC07
:101210004FEA1C4C0CFB0BF7D21B03FB0CF761EBEA
:1012200007010CFB0EF7B0EB074072EB17420CFB0B
:1012300008F734BFA2EB0742B2EB074261EB17415C
:101240004FEA0C444FEA910706FB07FC4FEA1C4C9F
:101250000CFB0BF7B0EBC74072EB573203FB0CF7FC
:1012600034BFA2EBC742B2EBC74261EB57310CFB74
:101270000EF7B0EBC70072EB57720CFB08F734BFE8
:10128000A2EBC702B2EBC70261EB5771039F4FEAB3
:10129000816141EA921104EBCC044FEAD1374FEA65
:1012A000826206FB07FC42EA90124FEA80604FEA36
:1012B0001C4C0CFB0BF7D21B03FB0CF761EB07017B
:1012C0000CFB0EF7B0EB074072EB17420CFB08F774
:1012D00034BFA2EB0742B2EB074261EB17414FEA82
:1012E0008C554FEA910704EB9C2406FB07FC4FEA60
:1012F0001C4C0CFB0BF7B0EBC74072EB573203FBF7
:101300000CF734BFA2EBC742B2EBC74261EB5731D7
:101310000CFB0EF7B0EBC70072EB57720CFB08F733
:1013200034BFA2EBC702B2EBC70261EB577115EBFA
:101330004C254FEA816141EA92114FEA82624FEAFD
:10134000D13742EA901206FB07FC44F100044FEA51
:1013500080604FEA1C4C0CFB0BF7D21B03FB0CF715
:1013600061EB07010CFB0EF7B0EB074072EB174285
:101370000CFB08F734BFA2EB0742B2EB074261EB6C
:10138000174115EB1C154FEA813141EA92414FEAB2
:10139000823242EA90424FEA80304FEA0C7644F1C2
:1013A000000448EA03434EEA0B484FF0000EB2EB4C
:1013B000080C71EB030724BF624639464EEB0E0E54
:1013C0004FF0000B0018524149414BEB0B0BB2EBB5
:1013D000080C71EB03077BF1000B24BF6246394612
:1013E0004EEB0E0E4FF0000B0018524149414BEBF3
:1013F0000B0BB2EB080C71EB03077BF1000B24BF66
:10140000624639464EEB0E0E51EA020718BF46F00F
:10141000010616EB0E7655F1000254F1000103D5DA
:10142000BDE88901BDE80088BDE88901BDE8004844
:10143000B619524141EB0101A3F1010370478080CD
:101440007F7E7D7C7B7A797877767675747372711E
:1014500071706F6E6E6D6C6C6B6A6A6968686766D6
:1014600066656464636362616160605F5F5E5E5D68
:101470005D5C5C5B5B5A5A595958585757565655DC
:1014800055555454535352525251515050504F4F3E
:101490004F4E4E4D4D4D4C4C4C4B4B4B4A4A4A498E
:1014A00049494848484747474746464645454544D1
:1014B0004444444343434342424242414141002B5E
:1014C0009C4630D477002BD01CB54FEA370703B4C5
:1014D0004FF010004FF01001BAF1000F06D0BCF130
:1014E000000FDCBF40F0080040F008014FF00000A2
:1014F0000FBCBDE810400BF1010BBBF1010F08BFA1
:101500005FEA170722BF12F1010211F101014FF04A
:10151000004143F1000300F0004043EA000070473F
:10152000F9D35708D0E746EA064613F1400F4FEAD1
:1015300016461FDD13F1200FDFBF16430A460021B8
:1015400020335B42BED0C3F1200746EA064602FACA
:1015500007F74FEA164646EA0706C3F1200722FAC4
:1015600003F201FA07F721FA03F14FF0000342EA10
:101570000702A7E746EA020646EA06464FEA16468B
:1015800046EA0106BCBF46EA0646360C4FF00003A9
:101590004FF000024FF0000194E72DE9804C9A468D
:1015A000934670B491E8380007C831EA400C48BF50
:1015B00034EA430C03D5FFF7E6FDFFF780FFF0BCEC
:1015C000BDE8008C2DE9804C9A46934670B491E8B2
:1015D000380007C810F0804F08BF13F0804F03D1C8
:1015E00000F005F8FFF76BFFF0BCBDE8008C20F0C1
:1015F0007F4780EA030023F07F4C07EB0C03A3F541
:101600007C5300F00040A3F1FE0392F0000F00F0C5
:10161000B38095F0000F00F077802DE901494FEA83
:1016200011404FEA144621EA004800FB06FC24EA78
:10163000064708FB06F607FB08F800FB07F718EB60
:1016400006484CEB164C4FEA124B18EB07484FEA92
:1016500015464CEB174022EA0B4E0BFB06FC25EA25
:1016600006470EFB06F607FB0EFE0BFB07F71EEB0D
:10167000064E4CEB164C4FF000061EEB074E4CEBA3
:10168000174B18EB0B0840F1000018EB0E0B58EB52
:10169000000840F100008F1A4FF000013CBFC94321
:1016A000661B14BFB5EB040C00213CBFC943F61BFD
:1016B0004FEA17444EEA8E0E27EA04454FEA1C47CC
:1016C00004FB07622CEA074C05FB07F70CFB05F649
:1016D00004FB0CFC16EB074642EB174216EB0C46DC
:1016E00042EB1C421BEB060658EB0202414146EA64
:1016F0009E0601D5BDE80189B619524141EB0101B1
:10170000A3F10103BDE801894FEA14454FEA1147EF
:1017100024EA054621EA074C05FB07F406FB07F718
:101720000CFB06F105FB0CFC11EB074144EB1744E5
:101730004FEA124711EB0C4144EB1C4422EA074CE0
:1017400005FB07F206FB07F70CFB06F605FB0CFC96
:1017500016EB074642EB174216EB0C4642EB1C45D4
:101760006A1854F1000148BF7047B619524141EB65
:101770000101A3F10103704795F0000F37D04FEA44
:1017800011424FEA144721EA024624EA074C02FBC1
:1017900007F106FB07F70CFB06F402FB0CFC14EB4D
:1017A000074441EB17414FEA154714EB0C4441EB5A
:1017B0001C4125EA074C02FB07F506FB07F70CFB6B
:1017C00006F602FB0CFC16EB074645EB174516EB3D
:1017D0000C4645EB1C42121951F1000148BF7047FD
:1017E000B619524141EB0101A3F1010370474FEAE1
:1017F00014454FEA114724EA054621EA074C05FB48
:1018000007F106FB07F70CFB06F24FF0000605FB9D
:101810000CFC12EB074241EB174112EB0C4251EB6F
:101820001C4148BF7047921841EB0101A3F101032D
:10183000704710B500F002F810BD00000CB5002094
:10184000019000903348006840F4803031490860CE
:1018500000BF3048006800F4003000900198401C40
:101860000190009818B90198B0F5A06FF1D12948FE
:10187000006800F4003010B10120009001E0002069
:1018800000900098012843D12348006840F01000E0
:10189000214908600846006820F0030008600846F7
:1018A000006840F0020008601A4840681949486022
:1018B0000846406848600846406840F480604860D8
:1018C0000846406820F47C1048600846406840F4B0
:1018D000E81048600846006840F08070086000BF6B
:1018E0000C48006800F000700028F9D009484068F2
:1018F00020F00300074948600846406840F00200B5
:10190000486000BF0348406800F00C000828F9D187
:101910000CBD0000001002400020024010B513482A
:10192000006840F00100114908600846406810490D
:1019300008400E494860084600680E4908400B49B7
:1019400008600846006820F4802008600846406867
:1019500020F4FE0048604FF41F008860FFF769FF25
:101960004FF000600449086010BD00000010024004
:101970000000FFF8FFFFF6FE08ED00E005480068F4
:10198000401C044908600448008820F00100024916
:10199000088070470800002010080040294800888F
:1019A00029492A4A126888542848006860B10846C4
:1019B00026490968405C30382549096801EB8101F6
:1019C00000EB4100224908601F48007830381F4969
:1019D0000968884203D100201C49086004E01B48C4
:1019E0000068401C194908601848006840BB002086
:1019F000184908601848008840F01000164908800F
:101A000013480068B0F5803F05DA11480088124994
:101A10001831088004E00E4800880F49183108800A
:101A20000D48008820F010000B49088000BF0A48CC
:101A3000008800F020000028F9D000200449086048
:101A400070470000043801400C0000200000002016
:101A500004000020140000200428004010B50A46AD
:101A6000074B984201D1074900E00749B1FBF2F367
:101A70000381838942F20C042343838110BD00005B
:101A80000038014000A24A04005125021F4A90423A
:101A900011D11F4A926944F205031A431C4B9A6103
:101AA0001C4A126842F0B0021A4B1A601A461268B9
:101AB00022F040021A60184A904217D1144A9269E3
:101AC00042F00402124B9A611A46D26942F4003283
:101AD000DA61104A121F126842F430620D4B1B1F6C
:101AE0001A601A46126822F480621A600B4A904209
:101AF0000AD10B4A126842F43062094B1A601A4646
:101B0000126822F480621A607047000000380140B9
:101B1000001002400408014000440040004800401A
:101B2000040C01400FB438B5044606A800900C48D8
:101B3000009A0599FEF79EFB002509E00848405DE4
:101B4000A08000BF208800F080000028FAD06D1C23
:101B50000348FEF7A1FBA842F0D838BC5DF814FB9F
:101B60001800002000280DDB00BF00BF00F01F029E
:101B7000012191404209920002F1E022C2F80011D5
:101B800000BF00BF704700000C49098841F0010107
:101B90000A4A118000210A4A116000BF00EB40018F
:101BA000C1EBC011064A1268B2EBC10FF6DB034964
:101BB000098821F00101014A1180704700080040A6
:101BC00008000020490050EAC12018BF04204A0D37
:101BD00018BF40F0010040F2FF72B2EB515F08BF46
:101BE00040F00200012808BF0520704730380A285D
:101BF00001D2012070470020704700001CB57D48CD
:101C0000C06940F0C0507B49C8617B48006840F41F
:101C10008070794908607748006A40F00100754992
:101C2000086200BF7348006A00F002000028F9D083
:101C30007048006A40F480706E4908620846006A85
:101C400040F4004008626D48008820F008006B49AD
:101C5000088000BF6948008800F008000028F9D01B
:101C600000BF6648008800F008000028F9D000BFD7
:101C70006248008800F020000028F9D05F48008802
:101C800040F010005D4908800020091D088047F6DB
:101C9000FF70091D08800020584914310880091D73
:101CA00008805648008820F010005449088000BF82
:101CB0005248008800F020000028F9D00021504848
:101CC000FFF7E4FE4E480C30008840F020004C49FD
:101CD0000C3108804FF416514948FFF7BFFE25200C
:101CE000FFF740FF47A14648FFF71CFF4148C06986
:101CF00040F004003F49C861002047490880902017
:101D0000091D088044482838008840F004004249F2
:101D10002839088040481C38008840F001003E49BE
:101D20001C3908803C481438008840F001003A49CA
:101D3000143908801E20FFF715FF59E04FF47A7020
:101D4000FFF722FF0020354908602C481430008836
:101D500000040860294818300088096808432F49A2
:101D60000860084600684FF4616190FBF1F201FBE6
:101D700012003C2190FBF1F201FB1204274800689D
:101D80004FF4616190FBF1F201FB12003C2190FBEA
:101D9000F1F5224800684FF4616190FBF1F61F48AD
:101DA00000682B4632461EA1CDE900401448FFF7DB
:101DB000B9FE1A4800682049884219D10020174905
:101DC00008600E48008840F010000C490880002090
:101DD0000A49183108800948008820F01000074996
:101DE000088000BF0548008800F020000028F9D0D6
:101DF000A4E70000001002400070004004280040EA
:101E0000003801404C6F6164696E67206170702E0C
:101E10002E2E200D0A00000028080040140000208B
:101E20002025693A25693A256920202D2D2D3E204F
:101E30002569200D0A000000002F0D0010B50029B3
:101E40000AD00878002807D005487844FFF7E2F860
:101E5000002801D0002010BD0248784410BD0000C9
:101E6000460100003E01000010B500290AD00878A4
:101E7000002807D005487844FFF7CCF8002801D0A7
:101E8000002010BD0248784410BD0000360100005B
:101E90002E010000FEF74BBE000000000000000015
:101EA0003031323334353637383941424344454690
:101EB000403058003031323334353637383961628A
:101EC000636465664030780004000008000000008C
:101ED00000000002000100001000000002400000AD
:101EE000000000A00000000005400000000000C845
:101EF000000000000C4000000000409C00000000BA
:101F0000194000000020BCBE00000000344000006A
:101F1000BFC91B8E00000004B5400000504BCFD05D
:101F20006607E2CF010000006C4100003E8251AA2A
:101F3000DFEEA73401000000D9420000DCB5A0E2CA
:101F40003A301F97FFFFFFFFB4450000FD25A0C8F2
:101F5000E9A3C14FFFFFFFFFFF3F0000000000802B
:101F600000000000FF3F00000000008000000000B3
:101F7000BC20000800000020180000002801000814
:101F8000D420000818000020600700004401000869
:101F90001C00000043000000F8FFFFFF0C000000E1
:101FA0000E0000000F0000002E00000010010000D5
:101FB00043000000F8FFFFFF004040404040404029
:101FC000404041414141414040404040404040400C
:101FD00040404040404040404005020202020202B0
:101FE00002020202020202020220202020202020FF
:101FF0002020200202020202020290909090909013
:1020000010101010101010101010101010101010D0
:102010001010101002020202020288888888888844
:102020000808080808080808080808080808080830
:102030000808080802020202400000000000000038
:102040000000000000000000000000000000000090
:102050000000000000000000000000000000000080
:102060000000000000000000000000000000000070
:102070000000000000000000000000000000000060
:102080000000000000000000000000000000000050
:102090000000000000000000000000000000000040
:1020A0000000000000000000000000000000000030
:1020B0000000000000000000000000000000000020
:1020C0000000000000000000000000000000000010
:0420D000000000000C
:0400000508000235B8
:00000001FF
